:020000040000FA
:0400000081EF00F09C
:1000080058014001400140014000400140004001CA
:1000180040014001400140014001400140014001D0
:1000280040014000400040004001400140014001C3
:1000380040014001400151010E01400140014001D1
:1000480040014001400140014000400040014001A2
:100058004001400140014000400140014001400191
:100068004001400140014001400140014001400180
:100078004001400140014001400040014001400171
:100088004001400140014001400140014001400160
:100098004001400140014001400040014000400053
:1000A8004001400140014001400140014001400140
:1000B8004001400140014001400140014001400130
:1000C8004001400140014001400140014001400120
:1000D8004001400140014001400140014001400110
:1000E8004000400140014001400040004000400005
:1000F8004001400140014001FF00C0EF01F0808352
:1001080086898C8F9295989B9EA2A5A7AAADB0B31D
:10011800B6B9BCBEC1C4C6C9CBCED0D3D5D7DADC3C
:10012800DEE0E2E4E6E8EAEBEDEEF0F1F3F4F5F612
:10013800F8F9FAFAFBFCFDFDFEFEFEFFFFFFFFFFEC
:10014800FFFFFEFEFEFDFDFCFBFAFAF9F8F6F5F4FA
:10015800F3F1F0EEEDEBEAE8E6E4E2E0DEDCDAD734
:10016800D5D3D0CECBC9C6C4C1BEBCB9B6B3B0AD69
:10017800AAA7A5A29E9B9895928F8C898683807C3E
:10018800797673706D6A6764615D5A5855524F4C41
:10019800494643413E3B393634312F2C2A28252302
:1001A800211F1D1B1917151412110F0E0C0B0A090C
:1001B8000706050504030202010101000000000012
:1001C80000000101010202030405050607090A0BE4
:1001D8000C0E0F1112141517191B1D1F212325288A
:1001E8002A2C2F313436393B3E414346494C4F5235
:1001F80055585A5D6164676A6D707376797C270E0D
:10020800116409EF01F00BEF01F019EF01F0000E96
:10021800186E000E176E010E196EF2EC01F0000E4A
:10022800116E130E0E6E880E0D6E0D500E10D8A4A2
:1002380020EF01F022EF01F038EF01F01050D8A4C0
:1002480028EF01F02AEF01F038EF01F0000E186EE8
:10025800000E176E010E196EF2EC01F0000E0E6E14
:10026800320E0D6E010E106E0D06D8A00E060D5042
:100278000E10D8A442EF01F044EF01F06FEF01F047
:100288001004D8A44AEF01F04CEF01F06FEF01F031
:100298001150020DB00EF324D96E050EF420DA6E5B
:1002A800610078F317F5610074F318F5010E196E03
:1002B800F2EC01F01150020D600EF324D96E050E18
:1002C800F420DA6E610078F30DF5610074F30EF531
:1002D800112A000E106E1200000200020002000235
:1002E80000020002000400000002000200020002F6
:1002F80000020002000400000002000200020002E6
:1003080000020002000400000002000200020002D5
:1003180000020002000400000002000200020002C5
:1003280000020002000400003C003C0028002800F5
:1003380024002400280000002D002D002F002F008D
:10034800350035003C000000280028002D002D0055
:100358002F002F00350000003C003C00280028003A
:1003680024002400280000002D002D002F002F005D
:10037800350035003C000000060EF66E010EF76EE3
:10038800000EF86E01EE00F210EE00F10900F5C45F
:10039800EEF4E550E150FAE1E250F8E1E00EF66ED5
:1003A800020EF76E000EF86E01EE60F110EEA0F08E
:1003B8000900F5C4EEF4E550E150FAE101EE01F16F
:1003C800150EEE6AE806FDE10401080E5D6F000EE9
:1003D8005E6F000E5F6F000153EF02F003011E9184
:1003E800800E185CD8A0FBEF01F0FDEF01F000EFE4
:1003F80002F07F0E186E1768171C1A6E181C1B6EF9
:100408001B50136E1AC512F561004CF41DF3610000
:1004180048F41CF314901950D8B415EF02F017EFF4
:1004280002F018EF02F01480B198A1881E81120022
:1004380061004CF41DF3610048F41CF3000E0F2416
:10044800D96EDA6A060EDA22DF5000017D6F040EDB
:100458000F26B19814B033EF02F035EF02F038EF01
:1004680002F0A19803011E911100000E096E000E02
:100478000A6E000E0B6E000E0C6E000E056E000E5E
:10048800066E000E076E000E086E7D0E0301236FC8
:10049800010E266FB196F00E246FA1861200158EFC
:1004A800B2EC02F08DEC02F0ABEC02F039EC02F0A9
:1004B80069EC02F0159E03EC01F0BE9E98EC02F088
:1004C800BE8E5FEF02F081EF00F0C00EBE16900EF8
:1004D80003011A6F540E1B6F000E1F6F010E216F60
:1004E800310E1E6F000E186E100E176E010E196E6B
:0604F800F2EC01F012001D
:10050000610060F316F5010E0126000E022203229F
:100510000422610058F4D8F41100000E0401006FA9
:10052000000EC66EA00E00017F6F000E7D6F1200E0
:10053000158C15BC9EEF02F0A0EF02F099EF02F0CF
:020540001200A7
:10054400B196159C010E0926000E0A220B220C22DC
:0A0554001100D68AD68ED68C120054
:06056000AE901100120034
:020000040020DA
:10000000FF0FFF0FFF0FFF0FFF0FFF0FFF0FFF0F80
:10001000FF0FFF0FFF0FFF0FFF0FFF0FFF0FFF0F70
:020000040030CA
:0A0000008CFEFFFC9FFFFFFFFFFFD7
:00000001FF
