:020000040000FA
:0400000081EF00F09C
:100008004D0135013501350140003501400035010C
:100018003501350135013501350135013501350128
:1000280035014000400040003501350135013501FA
:100038003501350135014601EE003501350135013F
:1000480035013501350135014000400035013501E4
:1000580035013501350140003501350135013501DE
:1000680035013501350135013501350135013501D8
:1000780035013501350135014000350135013501BE
:1000880035013501350135013501350135013501B8
:10009800350135013501350140003501400040008A
:1000A8003501350135013501350135013501350198
:1000B8003501350135013501350135013501350188
:1000C8003501350135013501350135013501350178
:1000D8003501350135013501350135013501350168
:1000E8004000350135013501400040004000400026
:1000F8003501350135013501FF0070EF01F08083CE
:1001080086898C8F9295989B9EA2A5A7AAADB0B31D
:10011800B6B9BCBEC1C4C6C9CBCED0D3D5D7DADC3C
:10012800DEE0E2E4E6E8EAEBEDEEF0F1F3F4F5F612
:10013800F8F9FAFAFBFCFDFDFEFEFEFFFFFFFFFFEC
:10014800FFFFFEFEFEFDFDFCFBFAFAF9F8F6F5F4FA
:10015800F3F1F0EEEDEBEAE8E6E4E2E0DEDCDAD734
:10016800D5D3D0CECBC9C6C4C1BEBCB9B6B3B0AD69
:10017800AAA7A5A29E9B9895928F8C898683807C3E
:10018800797673706D6A6764615D5A5855524F4C41
:10019800494643413E3B393634312F2C2A28252302
:1001A800211F1D1B1917151412110F0E0C0B0A090C
:1001B8000706050504030202010101000000000012
:1001C80000000101010202030405050607090A0BE4
:1001D8000C0E0F1112141517191B1D1F212325288A
:1001E8002A2C2F313436393B3E414346494C4F5235
:1001F80055585A5D6164676A6D707376797C140E20
:100208003B6409EF01F00BEF01F019EF01F0000E6C
:10021800426E000E416E010E436EB2EC01F0000E0C
:100228003B6E130E386E880E376E37503810D8A4D0
:1002380020EF01F022EF01F038EF01F03A50D8A496
:1002480028EF01F02AEF01F038EF01F0000E426EBE
:10025800000E416E010E436EB2EC01F0000E386ED6
:10026800320E376E010E3A6E3706D8A03806375070
:100278003810D8A442EF01F044EF01F06FEF01F01D
:100288003A04D8A44AEF01F04CEF01F06FEF01F007
:100298003B50020D010EF324D96E050EF420DA6EE0
:1002A800610078F341F5610074F342F5010E436E85
:1002B800B2EC01F03B50020D600EF324D96E050E2E
:1002C800F420DA6E610078F337F5610074F338F5DD
:1002D8003B2A000E3A6E1200060EF66E010EF76EFD
:1002E800000EF86E01EE00F210EE00F10900F5C400
:1002F800EEF4E550E150FAE1E250F8E1260EF66E30
:10030800040EF76E000EF86E01EE60F110EE2CF0A0
:100318000900F5C4EEF4E550E150FAE1AA0EF66ED4
:10032800040EF76E000EF86E01EE01F110EE2AF0E1
:100338000900F5C4EEF4E550E150FAE101EE2BF1C5
:10034800150EEE6AE806FDE10401080E5D6F000E69
:100358005E6F000E5F6F000129EF02F003011E912E
:10036800800E425CD8A0BBEF01F0BDEF01F0C0EFFA
:1003780001F07F0E426E4168411C446E421C456E7E
:1003880045503D6E44C53CF56100F4F41DF3610031
:10039800F0F41CF33E904350D8B4D5EF01F0D7EFFA
:1003A80001F0D8EF01F03E80B198A1881E811200BB
:1003B8006100F4F41DF36100F0F41CF3000E39241D
:1003C800D96EDA6A060EDA22DF5000017D6F040E5C
:1003D8003926B1983EB0F3EF01F0F5EF01F0F8EFF0
:1003E80001F0A19803011E911100000E336E000E5A
:1003F800346E000E356E000E366E000E2F6E000E37
:10040800306E000E316E000E326E7D0E0301236FCA
:10041800010E266FB196F00E246FA186120000021D
:1004280000020002000200020002000200000001B7
:1004380000010001000100010001000100010000AD
:10044800000200020002000400003F8E9CEC02F053
:1004580077EC02F095EC02F0F9EC01F03FEC02F0D9
:100468003F9E03EC01F0BE9E82EC02F0BE8E35EF9B
:1004780002F081EF00F0C00EBE16900E03011A6F55
:10048800540E1B6F000E1F6F010E216F310E1E6F71
:10049800000E426E100E416E010E436EB2EC01F07A
:1004A80012002F0035003C0000002F0035003C00F2
:1004B80000003C003C003C003C00350035003500A5
:1004C800350000002F0035003C000000610060F39B
:1004D80040F5010E2B26000E2C222D222E22610023
:1004E80000F5D8F41100000E0401006F000EC66E6E
:1004F800A00E00017F6F000E7D6F12003F8C3FBC85
:0E05080088EF02F08AEF02F083EF02F012009B
:10051800B1963F9C010E3326000E34223522362236
:0A0528001100D68AD68ED68C120080
:06053400AE901100120060
:020000040020DA
:10000000FF0FFF0FFF0FFF0FFF0FFF0FFF0FFF0F80
:10001000FF0FFF0FFF0FFF0FFF0FFF0FFF0FFF0F70
:020000040030CA
:0A0000008CFEFFFC9FFFFFFFFFFFD7
:00000001FF
