:020000040000FA
:04000000FEEFFFF020
:020000040001F9
:10FED40012001200120001EE01F1110EEE6AE806A2
:10FEE400FDE1000187EFFFF0000E0D6E000E0E6EB7
:10FEF400000E0F6E000E106E000E096E000E0A6EDC
:10FF0400000E0B6E000E0C6E1200088E6AECFFF0F1
:10FF140076ECFFF098ECFFF06CECFFF0AAECFFF04D
:10FF24006BECFFF090EFFFF0FEEFFFF0000ECE6EF3
:10FF3400000EC66E000E0401006F800EBE6E000E31
:10FF4400CF6E200EC76E000E086F000EBF6E12003B
:10FF5400000E136E000E126E000E176E010E166E5A
:10FF6400EBEFFFF0CFBAB9EFFFF0BBEFFFF0C3EF59
:10FF7400FFF0000E136E000E126E000E176E010ECF
:10FF8400166ECFAAC8EFFFF0CAEFFFF0CEEFFFF076
:10FF9400000E176E000E166E1250165C146E13507F
:10FFA4001758156ECFAAD9EFFFF0DBEFFFF0EBEF98
:10FFB400FFF014501510D8A4E2EFFFF0E4EFFFF0C7
:10FFC400EBEFFFF0BE2A010E0126000E02220322EF
:10FFD4000422BE0EBE64F1EFFFF0F3EFFFF0B4EFC6
:10FFE400FFF0BE0EBE64F9EFFFF0FBEFFFF0FDEF94
:0CFFF400FFF0800EBE6E12006DEFFFF0FB
:020000040020DA
:10000000FF0FFF0FFF0FFF0FFF0FFF0FFF0FFF0F80
:10001000FF0FFF0FFF0FFF0FFF0FFF0FFF0FFF0F70
:020000040030CA
:0A0000008CFEFFFC9FFFFFFFFFFFD7
:00000001FF
