:020000040000FA
:04000000FEEFFFF020
:020000040001F9
:10FF0E0012001200120001EE01F1110EEE6AE80667
:10FF1E00FDE10001A4EFFFF0000E0D6E000E0E6E5F
:10FF2E00000E0F6E000E106E000E096E000E0A6EA1
:10FF3E00000E0B6E000E0C6E1200088E87ECFFF09A
:10FF4E0093ECFFF0B5ECFFF089ECFFF0C7ECFFF09F
:10FF5E0088ECFFF0ADEFFFF0FEEFFFF0000ECE6E7F
:10FF6E00000EC66E000E0401006F800EBE6E000EF7
:10FF7E00CF6E300EC76E000E086F000EBF6E1200F1
:10FF8E00100ECF18D8A4CEEFFFF0D0EFFFF0D4EFC5
:10FF9E00FFF0000E136E000E126ECFAAD9EFFFF017
:10FFAE00DBEFFFF0C7EFFFF012501310D8A4E2EF13
:10FFBE00FFF0E4EFFFF0C7EFFFF0000E136E010E3F
:10FFCE00126E010E0126000E02220322042201509F
:10FFDE00800FBE6EBE0EBE64F7EFFFF0F9EFFFF0BE
:10FFEE00C7EFFFF0800EBE6EC7EFFFF012008AEF74
:02FFFE00FFF012
:020000040020DA
:10000000FF0FFF0FFF0FFF0FFF0FFF0FFF0FFF0F80
:10001000FF0FFF0FFF0FFF0FFF0FFF0FFF0FFF0F70
:020000040030CA
:0A0000008CFEFFFC9FFFFFFFFFFFD7
:00000001FF
