:020000040000FA
:04000000FEEFFFF020
:020000040001F9
:10FEA40012001200010204081020800EBE6E900E93
:10FEB40003011A6F540E1B6F1200000ECE6E000E5B
:10FEC400C66E000E0401006F800EBE6E12000301A8
:10FED4001A9F121C146E131C156E1550196F6100B5
:10FEE40050F418F3B19E1A8F1200000E096E000E22
:10FEF4000A6E000E0B6E000E0C6E000E056E000EE8
:10FF0400066E000E076E000E086E1200A80EF66E46
:10FF1400FE0EF76E010EF86E01EE19F110EE06F00A
:10FF24000900F5C4EEF4E550E150FAE101EE01F107
:10FF3400110EEE6AE806FDE10001A1EFFFF0048E68
:10FF440052ECFFF077ECFFF05FECFFF057ECFFF0C2
:10FF5400C3ECFFF0BE9E53ECFFF0030E136EE80EED
:10FF6400126E69ECFFF0800EB118D8A4BCEFFFF05C
:10FF7400BEEFFFF0B5EFFFF0BE8EAAEFFFF0FEEF8D
:10FF8400FFF021EE19F111EE12F1050EDBC4E3F4DA
:10FF9400E806FCE20F4A102AF40E0F1806E11004DA
:10FFA400D8A4D7EFFFF0D9EFFFF0FDEFFFF0000E7C
:10FFB400106E000E0F6E6100F8F218F5800E181620
:10FFC400120E0D24D96E050E0E20DA6EDF501812B3
:10FFD400610060F4BEF40D4A0E2A060E0D180E10D0
:10FFE400D8A4F7EFFFF0F9EFFFF0FDEFFFF0000EFC
:0CFFF4000E6E000E0D6E120088EFFFF084
:020000040020DA
:10000000FF0FFF0FFF0FFF0FFF0FFF0FFF0FFF0F80
:10001000FF0FFF0FFF0FFF0FFF0FFF0FFF0FFF0F70
:020000040030CA
:0A0000008CFEFFFC9FFFFFFFFFFFD7
:00000001FF
